{
  "contractName": "FSTTokenSale",
  "abi": [
    {
      "constant": true,
      "inputs": [],
      "name": "weiRaised",
      "outputs": [
        {
          "name": "",
          "type": "uint256"
        }
      ],
      "payable": false,
      "stateMutability": "view",
      "type": "function"
    },
    {
      "constant": true,
      "inputs": [],
      "name": "tokenSold",
      "outputs": [
        {
          "name": "",
          "type": "uint256"
        }
      ],
      "payable": false,
      "stateMutability": "view",
      "type": "function"
    },
    {
      "constant": true,
      "inputs": [],
      "name": "tokenPrice",
      "outputs": [
        {
          "name": "",
          "type": "uint256"
        }
      ],
      "payable": false,
      "stateMutability": "view",
      "type": "function"
    },
    {
      "constant": true,
      "inputs": [],
      "name": "token",
      "outputs": [
        {
          "name": "",
          "type": "address"
        }
      ],
      "payable": false,
      "stateMutability": "view",
      "type": "function"
    },
    {
      "inputs": [
        {
          "name": "_token",
          "type": "address"
        },
        {
          "name": "_tokenPrice",
          "type": "uint256"
        }
      ],
      "payable": false,
      "stateMutability": "nonpayable",
      "type": "constructor"
    },
    {
      "anonymous": false,
      "inputs": [
        {
          "indexed": true,
          "name": "_buyer",
          "type": "address"
        },
        {
          "indexed": false,
          "name": "_value",
          "type": "uint256"
        },
        {
          "indexed": false,
          "name": "_amount",
          "type": "uint256"
        }
      ],
      "name": "TokenPurchase",
      "type": "event"
    },
    {
      "constant": false,
      "inputs": [
        {
          "name": "_numberOfTokens",
          "type": "uint256"
        }
      ],
      "name": "buyTokens",
      "outputs": [],
      "payable": true,
      "stateMutability": "payable",
      "type": "function"
    },
    {
      "constant": false,
      "inputs": [],
      "name": "endSale",
      "outputs": [],
      "payable": false,
      "stateMutability": "nonpayable",
      "type": "function"
    }
  ],
  "bytecode": "0x608060405234801561001057600080fd5b506040516040806108e3833981018060405281019080805190602001909291908051906020019092919050505060008111151561004c57600080fd5b336000806101000a81548173ffffffffffffffffffffffffffffffffffffffff021916908373ffffffffffffffffffffffffffffffffffffffff16021790555081600160006101000a81548173ffffffffffffffffffffffffffffffffffffffff021916908373ffffffffffffffffffffffffffffffffffffffff1602179055508060028190555050506107fe806100e56000396000f300608060405260043610610078576000357c0100000000000000000000000000000000000000000000000000000000900463ffffffff1680633610724e1461007d578063380d831b1461009d5780634042b66f146100b4578063519ee19e146100df5780637ff9b5961461010a578063fc0c546a14610135575b600080fd5b61009b6004803603810190808035906020019092919050505061018c565b005b3480156100a957600080fd5b506100b26104a3565b005b3480156100c057600080fd5b506100c9610762565b6040518082815260200191505060405180910390f35b3480156100eb57600080fd5b506100f4610768565b6040518082815260200191505060405180910390f35b34801561011657600080fd5b5061011f61076e565b6040518082815260200191505060405180910390f35b34801561014157600080fd5b5061014a610774565b604051808273ffffffffffffffffffffffffffffffffffffffff1673ffffffffffffffffffffffffffffffffffffffff16815260200191505060405180910390f35b6000349050600081141515156101a157600080fd5b6101ad8260025461079a565b811415156101ba57600080fd5b81600160009054906101000a900473ffffffffffffffffffffffffffffffffffffffff1673ffffffffffffffffffffffffffffffffffffffff166370a08231306040518263ffffffff167c0100000000000000000000000000000000000000000000000000000000028152600401808273ffffffffffffffffffffffffffffffffffffffff1673ffffffffffffffffffffffffffffffffffffffff168152602001915050602060405180830381600087803b15801561027857600080fd5b505af115801561028c573d6000803e3d6000fd5b505050506040513d60208110156102a257600080fd5b8101908080519060200190929190505050101515156102c057600080fd5b8160036000828254019250508190555080600460008282540192505081905550600160009054906101000a900473ffffffffffffffffffffffffffffffffffffffff1673ffffffffffffffffffffffffffffffffffffffff1663a9059cbb33846040518363ffffffff167c0100000000000000000000000000000000000000000000000000000000028152600401808373ffffffffffffffffffffffffffffffffffffffff1673ffffffffffffffffffffffffffffffffffffffff16815260200182815260200192505050602060405180830381600087803b1580156103a557600080fd5b505af11580156103b9573d6000803e3d6000fd5b505050506040513d60208110156103cf57600080fd5b8101908080519060200190929190505050503373ffffffffffffffffffffffffffffffffffffffff167fcd60aa75dea3072fbc07ae6d7d856b5dc5f4eee88854f5b4abf7b680ef8bc50f8284604051808381526020018281526020019250505060405180910390a26000809054906101000a900473ffffffffffffffffffffffffffffffffffffffff1673ffffffffffffffffffffffffffffffffffffffff166108fc829081150290604051600060405180830381858888f1935050505015801561049e573d6000803e3d6000fd5b505050565b60008060009054906101000a900473ffffffffffffffffffffffffffffffffffffffff1673ffffffffffffffffffffffffffffffffffffffff163373ffffffffffffffffffffffffffffffffffffffff1614151561050057600080fd5b600160009054906101000a900473ffffffffffffffffffffffffffffffffffffffff1673ffffffffffffffffffffffffffffffffffffffff166370a08231306040518263ffffffff167c0100000000000000000000000000000000000000000000000000000000028152600401808273ffffffffffffffffffffffffffffffffffffffff1673ffffffffffffffffffffffffffffffffffffffff168152602001915050602060405180830381600087803b1580156105bd57600080fd5b505af11580156105d1573d6000803e3d6000fd5b505050506040513d60208110156105e757600080fd5b8101908080519060200190929190505050905060008111151561060657fe5b600160009054906101000a900473ffffffffffffffffffffffffffffffffffffffff1673ffffffffffffffffffffffffffffffffffffffff1663a9059cbb6000809054906101000a900473ffffffffffffffffffffffffffffffffffffffff16836040518363ffffffff167c0100000000000000000000000000000000000000000000000000000000028152600401808373ffffffffffffffffffffffffffffffffffffffff1673ffffffffffffffffffffffffffffffffffffffff16815260200182815260200192505050602060405180830381600087803b1580156106ec57600080fd5b505af1158015610700573d6000803e3d6000fd5b505050506040513d602081101561071657600080fd5b8101908080519060200190929190505050506000809054906101000a900473ffffffffffffffffffffffffffffffffffffffff1673ffffffffffffffffffffffffffffffffffffffff16ff5b60045481565b60035481565b60025481565b600160009054906101000a900473ffffffffffffffffffffffffffffffffffffffff1681565b6000808314156107ad57600090506107cc565b81830290508183828115156107be57fe5b041415156107c857fe5b8090505b929150505600a165627a7a723058200f0442e86a100cb88c22c013ab4706bd4d260b3102d42fc5e72b4db9edf37ce50029",
  "source": "pragma solidity ^0.4.21;\n\nimport \"./FSTToken.sol\";\n\ncontract FSTTokenSale {\n    address admin;\n    FSTToken public token;\n    uint256 public tokenPrice;\n    uint256 public tokenSold;\n    uint256 public weiRaised;\n\n    event TokenPurchase(\n        address indexed _buyer,\n        uint256 _value,\n        uint256 _amount\n    );\n\n    constructor (FSTToken _token, uint256 _tokenPrice) public {\n        require(_tokenPrice > 0);\n\n        admin = msg.sender;\n        token = _token;\n        tokenPrice = _tokenPrice;\n    }\n\n    function multiply(uint256 a, uint256 b) internal pure returns(uint256 c) {\n        if (a == 0) {\n            return 0;\n        }\n        c = a * b;\n        assert(c / a == b);\n        return c;\n    }\n\n    function buyTokens(uint256 _numberOfTokens) public payable {\n        uint256 weiAmount = msg.value;\n\n        require(weiAmount != 0);\n        require(weiAmount == multiply(_numberOfTokens, tokenPrice));\n        require(token.balanceOf(this) >= _numberOfTokens);\n        \n        tokenSold += _numberOfTokens;\n        weiRaised += weiAmount;\n\n        token.transfer(msg.sender, _numberOfTokens);\n        emit TokenPurchase(msg.sender, weiAmount, _numberOfTokens);\n\n        admin.transfer(weiAmount);\n    }\n\n    function endSale() public {\n        require(msg.sender == admin);\n        \n        uint256 balance = token.balanceOf(this);\n        assert(balance > 0);\n        token.transfer(admin, balance);\n\n        // Destroy the contract and send any remiaing ether in the contract to admin.\n        selfdestruct(admin);\n    }\n}",
  "sourcePath": "/Users/raja/Raja/Professional/Youtube/blockchain/etherium/token_sale/contracts/FSTTokenSale.sol",
  "compiler": {
    "name": "solc",
    "version": "0.4.24+commit.e67f0147.Emscripten.clang"
  },
  "schemaVersion": "2.0.1",
  "updatedAt": "2018-07-13T06:54:24.429Z"
}