{
  "contractName": "AffiliateToken",
  "abi": [
    {
      "constant": true,
      "inputs": [],
      "name": "totalSupply",
      "outputs": [
        {
          "name": "",
          "type": "uint256"
        }
      ],
      "payable": false,
      "stateMutability": "view",
      "type": "function"
    },
    {
      "inputs": [],
      "payable": false,
      "stateMutability": "nonpayable",
      "type": "constructor"
    }
  ],
  "bytecode": "0x608060405234801561001057600080fd5b50620f4240600081905550609e806100296000396000f300608060405260043610603f576000357c0100000000000000000000000000000000000000000000000000000000900463ffffffff16806318160ddd146044575b600080fd5b348015604f57600080fd5b506056606c565b6040518082815260200191505060405180910390f35b600054815600a165627a7a72305820acf0531c6339aebc7968b7a55a97639d1f9e4ba0d7ae574d991898115e5db68c0029",
  "source": "pragma solidity ^0.4.21;\n\ncontract AffiliateToken {\n    // Total number of token\n    uint256 public totalSupply;\n\n    constructor () public {\n        totalSupply = 1000000;\n    }\n}",
  "sourcePath": "/Users/raja/Raja/Professional/Youtube/blockchain/etherium/token_sale/contracts/AffiliateToken.sol",
  "compiler": {
    "name": "solc",
    "version": "0.4.24+commit.e67f0147.Emscripten.clang"
  },
  "schemaVersion": "2.0.1",
  "updatedAt": "2018-07-04T10:45:49.156Z"
}