{
  "contractName": "FSTTokenSale",
  "abi": [
    {
      "constant": true,
      "inputs": [],
      "name": "tokenPrice",
      "outputs": [
        {
          "name": "",
          "type": "uint256"
        }
      ],
      "payable": false,
      "stateMutability": "view",
      "type": "function"
    },
    {
      "constant": true,
      "inputs": [],
      "name": "token",
      "outputs": [
        {
          "name": "",
          "type": "address"
        }
      ],
      "payable": false,
      "stateMutability": "view",
      "type": "function"
    },
    {
      "inputs": [
        {
          "name": "_token",
          "type": "address"
        },
        {
          "name": "_tokenPrice",
          "type": "uint256"
        }
      ],
      "payable": false,
      "stateMutability": "nonpayable",
      "type": "constructor"
    }
  ],
  "bytecode": "0x608060405234801561001057600080fd5b506040516040806101f88339810180604052810190808051906020019092919080519060200190929190505050336000806101000a81548173ffffffffffffffffffffffffffffffffffffffff021916908373ffffffffffffffffffffffffffffffffffffffff16021790555081600160006101000a81548173ffffffffffffffffffffffffffffffffffffffff021916908373ffffffffffffffffffffffffffffffffffffffff160217905550806002819055505050610122806100d66000396000f3006080604052600436106049576000357c0100000000000000000000000000000000000000000000000000000000900463ffffffff1680637ff9b59614604e578063fc0c546a146076575b600080fd5b348015605957600080fd5b50606060ca565b6040518082815260200191505060405180910390f35b348015608157600080fd5b50608860d0565b604051808273ffffffffffffffffffffffffffffffffffffffff1673ffffffffffffffffffffffffffffffffffffffff16815260200191505060405180910390f35b60025481565b600160009054906101000a900473ffffffffffffffffffffffffffffffffffffffff16815600a165627a7a7230582042579cc00d346445957e96744b8a912e07ba31367c1faaccedeb09011de815870029",
  "source": "pragma solidity ^0.4.21;\n\nimport \"./FSTToken.sol\";\n\ncontract FSTTokenSale {\n    address admin;\n    FSTToken public token;\n    uint256 public tokenPrice;\n\n    constructor (FSTToken _token, uint256 _tokenPrice) public {\n        admin = msg.sender;\n        token = _token;\n        tokenPrice = _tokenPrice;\n    }\n}",
  "sourcePath": "/Users/raja/Raja/Professional/Youtube/blockchain/etherium/token_sale/contracts/FSTTokenSale.sol",
  "compiler": {
    "name": "solc",
    "version": "0.4.24+commit.e67f0147.Emscripten.clang"
  },
  "schemaVersion": "2.0.1",
  "updatedAt": "2018-07-09T19:11:25.525Z"
}